:020000040800F2
:10000000701A0020690200087F2D0008FF2B0008ED
:100010007D2D000885060008B34900080000000097
:100020000000000000000000000000002F31000868
:100030008B070008000000002D3100083131000856
:10004000830200088302000883020008830200087C
:10005000830200088302000883020008830200086C
:1000600083020008830200088302000819070008C1
:10007000830200088302000883020008830200084C
:10008000830200088302000883020008830200083C
:100090004149000883020008830200088302000827
:1000A000830200088302000883020008830200081C
:1000B00083020008C531000883020008830200089B
:1000C00083020008830200088302000883020008FC
:1000D00083020008830200088302000883020008EC
:1000E00083020008830200088302000883020008DC
:1000F00083020008830200088302000883020008CC
:100100000000000000000000000000008302000862
:1001100083020008830200088302000883020008AB
:10012000830200088302000883020008830200089B
:1001300083020008830200080000000000000000A5
:100140008302000883020008830200080000000008
:10015000000000000000000000000000000000009F
:100160000000000000000000830200088302000875
:1001700083020008000000000000000000000000F2
:10018000000000008302000800F002F800F05CF8B4
:100190000AA090E8000C82448344AAF10107DA45E2
:1001A00001D100F051F8AFF2090EBAE80F0013F0D8
:1001B000010F18BFFB1A43F001031847CC48000099
:1001C000EC4800000A444FF0000C10F8013B13F01B
:1001D000070408BF10F8014B1D1108BF10F8015BA0
:1001E000641E05D010F8016B641E01F8016BF9D193
:1001F00013F0080F1EBF10F8014BAD1C0C1B09D1EA
:100200006D1E58BF01F801CBFAD505E014F8016B5B
:1002100001F8016B6D1EF9D59142D6D370470000ED
:100220000023002400250026103A28BF78C1FBD8FF
:10023000520728BF30C148BF0B6070471FB504F09C
:1002400005FC1FBD10B510BD00F046F91146FFF7C3
:10025000F5FF04F0BFFB00F064F903B4FFF7F2FF11
:1002600003BC00F06BF900000948804709480047CB
:10027000FEE7FEE7FEE7FEE7FEE7FEE7FEE7FEE756
:10028000FEE7FEE704480549054A064B70470000B3
:10029000B53100088901000870140020701A002090
:1002A000701600207016002053EA020C00F06980DE
:1002B0002DE9F04B4FF00006002B1FBFB3FA83F57A
:1002C00003FA05F424FA05F65E4012BF1643B2FAAB
:1002D00082F502FA05F4C5F120051EBF22FA05FCDD
:1002E00044EA0C04203556EA044C4FEA144418BF83
:1002F000641C4FF000084FF00009904271EB030CB2
:1003000039D3002919BFB1FA81F701FA07F6B0FA1B
:1003100080F700FA07F6C7F120071EBF20FA07FC96
:1003200046EA0C062037B6FBF4FCA7EB0507103FA6
:1003300007F01F0BCBF120060CFA0BFB2CFA06F68C
:1003400044BFB3460026202FA4BF5E464FF0000BEB
:100350005BEA060C08BF4FF0010B19EB0B09ABFB76
:10036000027C48EB0608C01B06FB02CC0BFB03CC4F
:1003700071EB0C01C1E70B46024641464846BDE819
:10038000F08B13B54FF000004FF00001AFF3008089
:10039000BDE81C407047032A40F2308010F0030C87
:1003A00000F0158011F8013BBCF1020F624498BFC8
:1003B00011F801CB00F8013B38BF11F8013BA2F165
:1003C000040298BF00F801CB38BF00F8013B11F0E0
:1003D000030300F02580083AC0F0088051F8043B80
:1003E000083A51F804CBA0E80810F5E7121D5CBFED
:1003F00051F8043B40F8043BAFF30080D20724BF20
:1004000011F8013B11F801CB48BF11F8012B24BFB3
:1004100000F8013B00F801CB48BF00F8012B704702
:1004200010B5203AC0F00B80B1E81850203AA0E88F
:100430001850B1E81850A0E81850BFF4F5AF5FEAC3
:10044000027C24BFB1E81850A0E8185044BF18C976
:1004500018C0BDE810405FEA827C24BF51F8043B1D
:1004600040F8043B08BF7047D20728BF31F8023B71
:1004700048BF11F8012B28BF20F8023B48BF00F805
:10048000012B70474FF0000200B513469446964684
:10049000203922BFA0E80C50A0E80C50B1F1200197
:1004A000BFF4F7AF090728BFA0E80C5048BF0CC045
:1004B0005DF804EB890028BF40F8042B08BF7047A3
:1004C00048BF20F8022B11F0804F18BF00F8012B15
:1004D0007047704770477047754600F02BF8AE467E
:1004E00005006946534620F00700854618B020B540
:1004F000FFF7C8FEBDE820404FF000064FF00007B0
:100500004FF000084FF0000B21F00701AC46ACE8BB
:10051000C009ACE8C009ACE8C009ACE8C0098D4628
:10052000704710B50446AFF300802046BDE8104088
:10053000FFF793BE004870470C14002001491820B3
:10054000ABBEFEE72600020070470146406A026C1F
:1005500012F0500F03D0806B026B08461047016CFD
:1005600041F4007101640168C96811F4406F0CD155
:10057000417E51B9016C21F480710164016CC904A0
:1005800003D4016C41F00101016400F057BB406AE3
:10059000016C41F040010164416C41F0040141648F
:1005A00000F04EBB406A00F04ABB000070B5044644
:1005B0000068816801F0030101292AD10168C90797
:1005C00027D0816801F00D01012914D1816841F023
:1005D0000201816021680320086000F0E1FE054609
:1005E00013E000BF00F0DCFE401B02280DD920689C
:1005F0008068C00709D0206C40F010002064606C57
:1006000040F001006064012070BD20688068C00770
:10061000E8D1002070BD000070B504460068816814
:1006200001F00301012902D10168C90725D18168C0
:10063000134A114212D1816841F00101816000F03A
:10064000AFFE054614E000BF00F0AAFE401B0228E2
:100650000ED920680068C043C00709D0206C40F064
:1006600010002064606C40F001006064012070BDE7
:1006700020680068C043C007E6D1002070BD0000BC
:100680003F000080FEE70020704700207047000018
:1006900010B500220449054802F01AFF0449034836
:1006A00002F010FF002010BD180B00206C0200208B
:1006B000300700207047000070B50D460446014623
:1006C000054802F0FFFE044802F0E0FE20462968DB
:1006D000FFF7F0FF002070BD6C02002070B50C46E3
:1006E0000A46054601460A48FFF755FE0948D0F874
:1006F000B812D1F8140208B1012070BD2246294673
:10070000044802F0E5FEBDE87040024802F03EBF3A
:10071000180B00206C020020014800F0A5BC00006E
:10072000280200200B4B01681422994207D20A4B81
:100730001944B1FBF2F189000164084908E0054B56
:100740005B421944B1FBF2F18900016401490839A7
:10075000C163704708040240F8FFFDBF000002407B
:1007600030B590F840500124AC40C56B6C60046813
:1007700063604368102B036803D099600068C2600F
:1007800030BD9A600068C16030BD704772B6FEE748
:10079000F0B5002302684FF0A04C3E4C94B01F46C9
:1007A000624501D100940DE0A24202D1CDF800C013
:1007B00008E0394D394EAA4201D1009602E0B2421A
:1007C00014D1009590F83C50012D12D0012580F8ED
:1007D0003C5095686D0753D4009DAD686D074FD4AC
:1007E000624501D0A24206D12D4A05E0012014B095
:1007F000F0BD0220FBE72B4A0D6840F61F7425B3BD
:10080000956890F8306025F4604545EA46354E68B5
:10081000354395600568AE6806F00306012E02D1E7
:100820002D68ED0731D1009DAD6805F00305012D60
:1008300003D1009D2D68ED0727D10D6889680D4310
:100840009168A1430D4395601FE0916821F46041D8
:10085000916001688D6805F00305012D02D10968DA
:10086000C90712D10099896801F00301012903D158
:1008700000990968C90708D19168A143916004E013
:10088000016C41F020010164012380F83C7018469E
:10089000ADE70000000100500004005000050050CA
:1008A0000003005000070050F0B594B000240094FD
:1008B00090F83C202546012A19D0012780F83C7089
:1008C00003689A6852077CD44A681F26052A11D209
:1008D000D3F830C002EB4202520096402CEA060CDC
:1008E0000E6896404CEA060CC3F830C035E0022092
:1008F00014B0F0BD0A2A0FD2D3F834C0521F02EB55
:100900004202520096402CEA060C0E6896404CEAD1
:10091000060CC3F834C020E00F2A0FD2D3F838C039
:100920000A3A02EB4202520096402CEA060C0E688C
:1009300096404CEA060CC3F838C00EE0D3F83CC031
:100940000F3A02EB4202520096402CEA060C0E6867
:1009500096404CEA060CC3F83CC00268936813F05A
:100960000C0F4FF0070374D1D1F800E0BEF10A0F6D
:1009700010D39669AEF10A0E0EEB4E0C03FA0CFE84
:1009800026EA0E06D1F808E00EFA0CFE46EA0E063C
:1009900096610FE0D2F814C00EEB4E0603FA06FE85
:1009A0002CEA0E0CD1F808E00EFA06FE4CEA0E0C0A
:1009B000C2F814C002684E69D2F80CC0CCF3C10C66
:1009C00000E0FDE04FEA4C0C06FA0CF6D1F810E01E
:1009D000DFF848C2BEF1010F42D0BEF1020F4DD088
:1009E000BEF1030F58D0BEF1040F63D0166E91F81C
:1009F00000C006F0F846B6EB8C6F03D1166E26F0F9
:100A0000004616660268566E91F800C006F0F84679
:100A1000B6EB8C6F03D1566E26F000465666026820
:100A2000966E91F800C006F0F846B6EB8C6F03D1D5
:100A3000966E26F0004696660268D66E91F800C063
:100A400006F0F846B6EB8C6F03D1D66E26F0004662
:100A5000D6660268966806F00306012E3AD136E0A3
:100A6000D2F860E00EEA0C0E91F800C046EA8C66FF
:100A70004EEA060E4EF000461666EAE7D2F864E04B
:100A80000EEA0C0E91F800C046EA8C664EEA060E9D
:100A90004EF000465666DCE7D2F868E00EEA0C0E2F
:100AA00091F800C046EA8C664EEA060E4EF000460B
:100AB0009666CEE7D2F86CE00EEA0C0E91F800C014
:100AC00046EA8C664EEA060E4EF00046C0E716680F
:100AD000F6077AD1CE68012E06D052F8B03F0E78D4
:100AE000B740BB43136021E052F8B06F91F800C0EB
:100AF00007FA0CF73E4316600A680A2A0BD3066809
:100B0000B769093A02EB420293409F438B689340D6
:100B10001F43B7610AE007687E69521C02EB42027C
:100B200093409E438B6893401E437E6103684FF061
:100B3000A0473B4EBB4201D0B34201D1394A00E04D
:100B4000394A0968102904D0112907D012290AD07E
:100B50003BE0D2F808C04FEA0C2C08E0D2F808C0FD
:100B60004FEACC1C03E0D2F808C04FEA4C2CBCF191
:100B7000000F2ADBBB420DD0B34201D100970CE03D
:100B80002A4EDFF8ACC0B34202D1CDF800C004E079
:100B9000634501D1009600E000959E6806F00306CB
:100BA000012E02D11E68F6070AD1009E8EB1B668EA
:100BB00006F00306012E0CD1009E3668F60708D019
:100BC000016C41F020010164012480F83C50204672
:100BD0008EE6102908D011291AD01229F5D1916872
:100BE00041F480019160F0E7BB42EED1916841F49D
:100BF000000191600F49104A0968B1FBF2F101EB65
:100C00008101490000E0491E00910029FBD1DCE789
:100C1000BB42DAD1916841F08071E3E700F0FF83D5
:100C20000001005000030050000700500004005075
:100C3000000500507400002040420F0070477047CC
:100C400070470000F0B54FF0000695B0040037463D
:100C50003546009605D0206CC00648D4206C18B1EB
:100C600033E0012015B0F0BD6564E564A56484F847
:100C70003C50204600F00CF920688068C00024D465
:100C80002046FFF793FC0646206CC0061DD4E6B94B
:100C9000206C20F4885040F00200206420688168B5
:100CA00021F0405181602068816841F0805181606D
:100CB0006E486F490068B0FBF1F000EB8000400027
:100CC00000E0401E00900028FBD120688168C90028
:100CD00002D5806880000AD5206C20F0020040F028
:100CE00010002064606C40F0010060640126206CFC
:100CF000C00676D4002E74D120688168490770D46C
:100D0000216C21F4807141F0020121644FF0A04E6A
:100D1000584B704501D0984201D1574A00E0574ADC
:100D2000DFF85CC15749704501D100930EE098424D
:100D300002D1CDF800E009E0884202D1CDF800C030
:100D400004E0604501D1009100E00095836803F064
:100D50000303012B02D10068C00710D1009840B1F5
:100D6000806800F00300012803D100980068C007E4
:100D700005D19068636820F4403018439060D4E94E
:100D800002201043626B012A02D04FF4805300E02E
:100D90000023627E43EA4233184394F820303843FC
:100DA000012B0AD1F2B1226C22F0020242F02002A1
:100DB0002264626C42F001026264A26A012A21D0BC
:100DC00023688B4201D0634518D14FF430774FF43C
:100DD000E071BA4213D04FF480739A420AD1394677
:100DE0000DE039E0A28C284B03EB4242024342F46F
:100DF0008030E2E78A4201D1194600E01146014302
:100E0000E06A084321688A6812F00C0F0BD1CA68A7
:100E100044F202039A43CA60217E94F83020890389
:100E200041EA420108432268D168184B1940014346
:100E3000D160206901282068016B21F00F0102D1E7
:100E4000E269521E114301636564206C20F00200C8
:100E500040F00100206406E0206C20F0020040F029
:100E60001000206401263046FCE6000074000020DB
:100E700040420F00000100500003005000070050E6
:100E800000050050000400500000FEFF07C0F0FF06
:100E900070B586B0054614216846FFF7F3FA286856
:100EA000B0F1A04F31D11A49486940F080504861F3
:100EB000486900F080500590486940F4003048616E
:100EC0004869002600F400300590012000900320BE
:100ED000CDE9010669464FF0904000F079F90E4CDB
:100EE0000C48C4E900068020C4E90260800020614B
:100EF000800060612020C4E90606204600F008F961
:100F000008B1FFF743FCAC63656206B070BD00003A
:100F10000010024008000240280200202DE9F05F86
:100F2000044600688B469246816849077ED494F84F
:100F30003C1001290ED001214FF0A048DFF810919C
:100F4000444F84F83C10404501D0B84205D1D8F850
:100F5000080304E00220BDE8F09FD9F800004FF03C
:100F6000000610F01F0F01D0012504E02046FFF716
:100F700053FB050002D084F83C6066E0206C40F62C
:100F80000161884340F480702064206841468842B3
:100F900001D0B84202D1D1F8082301E0D9F80020ED
:100FA00012F01F0F04D0884202D02B4A904207D182
:100FB000216C21F480112164C06880010ED413E0FB
:100FC000226C42F480122264B84201D1C86802E067
:100FD00021480C30006810F0007F05D0206C20F410
:100FE000005040F480502064206CC00404D5606C34
:100FF00020F00600606400E0666484F83C60A16B49
:1010000016488862A16B1648C862A16B1548086330
:1010100021681C2008602068416841F0100141608F
:101020002068C16841F00101C16000E00CE0216866
:1010300053465A464031A06B00F091F82068816811
:1010400041F00401816000E00225284683E70000AA
:101050000807005000010050000400504B05000834
:10106000A50500088F050008F0B4C16B0D68016884
:101070000C68066C042202FA06F32B420FD06307B9
:101080000DD50B689B0603D40B6823F004030B609B
:1010900090F840108A40C16B4A60C16A1BE002238D
:1010A00003FA06F72F424FF0000C4FF0010216D062
:1010B000A70714D50C68A40605D40C6824F00A040C
:1010C0000C6080F8212090F840108B40C16B4B6081
:1010D00080F820C0816A002918D0F0BC0847082396
:1010E000B3402B4212D0230710D50B6823F00E0318
:1010F0000B6090F84010C36B02FA01F159608263F3
:1011000080F8212080F820C0016BE4E7F0BC704734
:1011100070B5040021D0022084F8210022681168F3
:1011200043F6F0708143D4E901031843D4E9033551
:101130002B43184363691843A3691843E3691843B1
:10114000084310602046FFF7EDFA0020A06301215C
:1011500084F8211084F8200070BD012070BD70B5A6
:10116000044690F82000002501280CD0012084F8C6
:10117000200094F821600020012E06D084F8200081
:101180000225284670BD022070BD022684F8216029
:10119000A0632068066826F0010606602046FFF777
:1011A000DFFAE06A00282068016802D041F00E01F1
:1011B00006E041F00A0101602068016821F00401A5
:1011C00001602068016841F001010160D9E7000079
:1011D0002DE9F04FDFF8AC9100230325A9F1040BB2
:1011E00085B04FF0010C0F2709F1040AABF1040E92
:1011F000BFE000BF0CFA03F6324075D00C7904F062
:101200000304012C01D0022C1BD1846800945C00E3
:1012100005FA04F80494009C24EA08040094D1F828
:101220000C80049C08FA04F8009C48EA0408C0F802
:1012300008804468B4430E79C6F300169E402643E6
:1012400046600C79E443A4070AD0C4684FEA430817
:1012500005FA08F6B4438E6806FA08F62643C66017
:101260000C7904F00304022C10D1DC0800EB840498
:101270000294246A5E074FEAD66807FA08F6B44378
:101280000E6906FA08F62643029C266204684FEAB5
:10129000430805FA08F6B4430E7906F0030606FA89
:1012A00008F6264306604C6814F4403F60D0364C84
:1012B000A66946F00106A661A46923F0030604F0BE
:1012C00001040094314C34440294A4689E074FEA10
:1012D000167807FA08F6B443B0F1904F05D02C4EBB
:1012E000B04204D1012612E042E000260FE0294E70
:1012F000B04201D102260AE0274EB04201D10326B6
:1013000005E0264EB04201D1042600E0052606FA8B
:1013100008F62643029CA660D9F800604C46D1F836
:10132000048096435FEAC82800D516432660DAF8A1
:1013300000405646D1F8048094435FEA882800D5DF
:1013400014433460DBF800405E46D1F804809443D7
:101350005FEA883800D514433460DEF800407646F2
:10136000D1F8048094435FEAC83800D51443346050
:101370005B1C0A6832FA03F47FF43CAF05B0BDE8A9
:10138000F08F0000080401400010024000000140FE
:101390000004004800080048000C00480010004805
:1013A000014880687047000068000020024881689A
:1013B000027811448160704768000020074810B52A
:1013C000016841F010010160032000F06FF8002077
:1013D00000F006F800F024F8002010BD00200240C4
:1013E00070B50D4D04464FF47A712878B1FBF0F0DA
:1013F0000A490968B1FBF0F001F0C0F948B9102CB6
:1014000007D200222146501E00F030F800206C6008
:1014100070BD012070BD0000680000207400002035
:101420000A4882B0816941F001018161816901F05E
:1014300001010091C16941F08051C161C06900F0B2
:1014400080500090072002B000F030B80010024039
:10145000002809DB00F01F020121914040098000B3
:1014600000F1E020C0F8001170470000F0B40E4B0E
:101470001B680C46C3F30223C3F10705042D00D9F2
:101480000425191D072901D2002300E0DB1E0126D7
:1014900006FA05F1491E214099409E40761E1640ED
:1014A0003143F0BC03F086BA0CED00E0064900F0D1
:1014B000070208684FF6FF03184040EA0220034A7B
:1014C00010430860704700000CED00E00000FA05D2
:1014D00010B50C0607D501F0070101EB810100EB07
:1014E000C100283005E001EB810100EBC10000F5EF
:1014F000B47099B232B1012202730181190C418199
:10150000002010BD00220273C180F9E7704701EB93
:10151000810200EBC202D0F8E802D26B02F0E5B91A
:1015200001EB810200EBC202D0F8E802D2F87C2184
:1015300002F03EBA70B504460B0601F0070000EB5E
:10154000800104EBC1014FF001024FF0000503D50B
:1015500081F82920283103E081F8695101F5B4713F
:10156000087094F8A802012808D084F8A8222068FE
:1015700002F07EFE84F8A852002070BD022070BDEB
:1015800070B5044601F00F006268904201D9012055
:1015900070BD0B0601F0070000EB800104EBC101F8
:1015A0004FF001024FF0000503D581F829202831C2
:1015B00003E081F8695101F5B4718D70087094F8F9
:1015C000A802012808D084F8A822206802F0E9FEC9
:1015D00084F8A852002070BD022070BD2DE9F05F94
:1015E00004685FEA424C0B788D69B4F850C04FF044
:1015F00000064BF68F7948F2800A48F68F7B48F256
:10160000C00E4FF480672AD54FF0020808EBC308DC
:10161000C44407EB4C07E45BC4F30904A54203D3BD
:101620002D1B8D6101D00BE08E61066836F82350CA
:1016300005EA090585F4005545EA0A0526F8235010
:10164000520609D50D78036833F8252002EA0B020B
:1016500042EA0E0223F8252084B30A8929E04FF0DC
:10166000060808EBC308C44407EB4C07E45BC4F36B
:101670000904A54203D32D1B8D6101D00BE08E61BF
:10168000066836F8235005EA090585F4005545EA51
:101690000A0526F82350520609D40B78056835F858
:1016A000232002EA0B0242EA0E0225F823202CB185
:1016B0004A8949690068234603F04CF92046BDE891
:1016C000F09F2DE9F05F054600680C465FEA426C2A
:1016D00016468B692278B0F850C048F68F774CF2E6
:1016E00080094FF4004B4FF6FF7E4FF4806A4FF0B5
:1016F000000172D54FF0020808EBC208E0440AEB83
:10170000480C30F80C00C0F30900834211D91B1AB1
:10171000A3610FD0730407D52E6836F822303B4002
:1017200043EA090326F8223094F82420012A47D0FE
:1017300052E1A161607810B1012813D01AE0286845
:10174000B0F85030184400EB0210B0F80424C2F393
:101750000902A0F80424B0F8042442F40042A0F8DE
:10176000042407E02868B0F85030184400EB021059
:10177000A0F804146278286812B1012A11D018E088
:10178000B0F850100844217800EB0110B0F80C14A8
:10179000C1F30901A0F80C14B0F80C1441F4004195
:1017A00005E0B0F850201044227800EB0210A0F8B9
:1017B0000C1421782846FFF7AAFE700472D40BE1BE
:1017C000626902446261E2690244E2612369226A59
:1017D0009A4203D31846111A04E03EE084F824101C
:1017E0000AB110462162617811B1012929D031E096
:1017F0002968B1F850201144227801EB0211B1F8A8
:101800000424C2F30902A1F8042401F204413E2891
:1018100007D94209C30600D1521E0B884BEA822227
:1018200007E048B14208C30700D0521C0B880EEAFB
:10183000822213430B800DE00A8842F400420A80A2
:1018400008E02968B1F850201144227801EB021118
:10185000A1F8040483B22289BAE04FF0060808EB2D
:10186000C208E0440AEB480C30F80C00C0F3090051
:10187000834211D31B1AA3610FD0730407D42E68BF
:1018800036F822303B4043EA090326F8223094F828
:101890002420012A51D09FE0A161607818B101286D
:1018A00014D01BE03FE02868B0F85030184400EB3B
:1018B0000210B0F80424C2F30902A0F80424B0F81E
:1018C000042442F40042A0F8042407E02868B0F899
:1018D0005030184400EB0210A0F804146278286815
:1018E00012B1012A11D018E0B0F850100844217844
:1018F00000EB0110B0F80C14C1F30901A0F80C14AE
:10190000B0F80C1441F4004105E0B0F85020104448
:10191000227800EB0210A0F80C1421782846FFF77B
:10192000F6FD700458D42278296831F82200384036
:1019300040EA090021F822004EE062690244626137
:10194000E2690244E2612369226A9A4203D318469B
:10195000111A216204E00AB11046216284F82410B1
:101960006278296812B1012A28D02FE0B1F85020FE
:101970001144227801EB0211B1F80C24C2F30902E0
:10198000A1F80C2401F20C413E2807D94209C306F4
:1019900000D1521E0B884BEA822207E048B1420870
:1019A000C30700D0521C0B880EEA822213430B801F
:1019B0000CE00A8842F400420A8007E0B1F85020A7
:1019C0001144227801EB0211A1F80C04628983B260
:1019D0006169286802F0DAFF2278296831F822006C
:1019E00048F6BF73184080F0300048F28003184377
:1019F00021F822000020BDE8F09F01F0070101EB73
:101A0000810100EBC100D0F8840170472DE9F0415D
:101A100004460F0601F0070000EB800104EBC10152
:101A20004FF001064FF0000503D581F829602831F9
:101A300003E081F8695101F5B471022B08700A6165
:101A4000CB7000D10D7194F8A802012809D084F858
:101A5000A862206802F0BEFA284684F8A852BDE8C1
:101A6000F0810220FBE710B501F0070404EB8401CC
:101A700000EBC101C1E95F230022C1F8842181F894
:101A8000692181F86841006801F5B47102F0DEFC5B
:101A9000002010BD70B5044601F007006268904256
:101AA00001D9012070BD0B064FF000054FF0010277
:101AB00007D500EB800104EBC10181F82920283112
:101AC00007E001EB810104EBC10181F8695101F5E7
:101AD000B4718A70087094F8A802012808D084F8BC
:101AE000A822206802F099FC84F8A852002070BD5A
:101AF000022070BD10B501F0070404EB840100EB77
:101B0000C101C1E90F23012281F84C208B6400231D
:101B10004B6481F8292001F8284F006802F096FCF8
:101B2000002010BD10B50446006802F00FFF01044C
:101B300004D52046BDE8104001F022B941050ED57C
:101B4000206830F8441F21F480610180204600F0B5
:101B5000E9F82046BDE81040002100F0FEB841043D
:101B600005D5206830F8441F21F4804149E0810404
:101B700005D5206830F8441F21F4005141E0C1042C
:101B800014D5206830F8401F21F00401018020683E
:101B900030F8401F21F008010180204600F0D5F800
:101BA000206830F8441F21F480512AE0010515D542
:101BB000206830F8401F41F008010180206830F8AB
:101BC000441F21F400610180206830F8401F41F07B
:101BD00004010180204600F0F5F810BD810509D50B
:101BE000206830F8441F21F400710180204600F085
:101BF000B0F810BDC005FCD5206830F8441F21F4B2
:101C00008071018010BD000070B586B0040004D062
:101C100094F8A902002518B107E0012006B070BDB4
:101C200084F8A852204600F043F8032084F8A90263
:101C3000206802F0AFFB002001260DE000EB8001E0
:101C400004EBC10181F8296001F8280F401CCD7018
:101C50000D614D61C0B28D6161688142EED8002096
:101C600012E000BF00EB800104EBC10181F8695173
:101C700081F8680181F86B51C1F87851C1F87C5145
:101C8000401CC0B2C1F8805161688142EAD8142278
:101C900004F110016846FEF7C3FB94E80F0002F060
:101CA00070FB84F8245084F8A9620020B6E7000095
:101CB00010B586B0044614216846FEF7E3FB1749C9
:101CC0002068884228D1164C606940F40030606179
:101CD0006069694600F4003005904FF4C0500090F0
:101CE0000220019000200290032003900E20049017
:101CF0004FF09040FFF76CFAE06940F40000E061BB
:101D0000E069002200F40000059011461420FFF75E
:101D1000ADFB1420FFF79CFB06B010BD005C00403B
:101D20000010024070B5044680680125022801D0E9
:101D3000FEF72CFD2946D4F8E80201F022FFD4F882
:101D4000E802BDE8704001F0DEBED0F8E80201F024
:101D500002BFD0F8E80201F008BF10B5044690F8C1
:101D6000A80201280BD0012084F8A80284F82410CE
:101D7000206802F005FE002084F8A80210BD0220B1
:101D800010BDD0F8E82200F52C71104601F005BF17
:101D900010B5044690F8A802012810D0012084F85C
:101DA000A802206802F0C3FD01212046FFF7AEFB28
:101DB000206802F0E4FA002084F8A80210BD022096
:101DC00010BD000010B50446D0F8E80201F024FF71
:101DD000A069002804D00348016841F006010160B1
:101DE00010BD000010ED00E02DE9F84F044600683A
:101DF0000026804DC0036ED5E869C00008D4E869AC
:101E000040F08050E861E869012600F080500090C1
:101E100079480168C90512D40168804641F480718F
:101E20000160FFF7BDFA074605E000BFFFF7B8FA0B
:101E3000C01B642835D8D8F80000C005F6D5286A3C
:101E400010F4407053D0A18801F4407181424ED00B
:101E5000286A4FF4803191FAA1F2B2FA82F2970027
:101E6000664A4FF00108174420F44070C7F8008418
:101E700091FAA1F1B1FA81F102EB81010023C1F8DD
:101E800000342862C00732D0FFF78AFA074641F2D1
:101E9000883A4FF0020907E0FFF782FAC11B51456B
:101EA00002D90320BDE8F88F99FAA9F0B0FA80F0C2
:101EB00040F040024946B8EB521F01D12A680CE0BD
:101EC00091FAA1F2B2FA82F242F04002B1EB521F53
:101ED00002D12A6A01E015E06A6A99FAA9F1B1FA19
:101EE00081F101F01F0108FA01F00242D4D0286A02
:101EF000616820F44070084328621EB1E86920F050
:101F00008050E8612078C00705D0286BA16820F0D8
:101F10000300084328632078800705D5286BE16813
:101F200020F44030084328632078400705D5286B0B
:101F3000216920F44020084328632078800605D5D5
:101F4000286BE16920F010000843286320688003B3
:101F500005D56868A16B20F480000843686020788C
:101F6000400605D5286B216A20F02000084328632D
:101F70002078000705D5286B616920F440100843DC
:101F800028632078C00605D5286BA16920F440009D
:101F9000084328632088800505D56868E16A20F435
:101FA0000000084368602078000605D5E86A616A89
:101FB00020F4F8700843E8622088C00505D5E86A77
:101FC000A16A20F478500843E8622088C00405D54F
:101FD000286B216B20F480700843286320888004DC
:101FE00005D5286B616B20F400700843286300203E
:101FF00058E700000010024000700040000042421C
:102000002DE9F0470F46050069D04A4E306800F0D0
:102010000700B84209D2306820F00700384330602A
:10202000306800F00700B84259D12878424C800748
:1020300005D56068A96820F0F00008436060287842
:10204000C0073DD06968012001290DD0022923D0A5
:102050005FF0020393FAA3F2B2FA82F242F0200296
:10206000520904D0226803E04FF40033F2E7626AB9
:1020700093FAA3F3B3FA83F303F01F0398400242E9
:102080002DD0606820F0030008436060FFF788F9F6
:10209000804641F288390CE04FF00073DAE700BF68
:1020A000FFF77EF9A0EB0801494502D90320BDE8FE
:1020B000F0876068696800F00C00B0EB810FEFD129
:1020C000306800F00700B8420BD9306820F00700F4
:1020D00038433060306800F00700B84201D001207A
:1020E000E5E72878400705D56068E96820F4E060F6
:1020F000084360602878000706D56068296920F4E5
:10210000605040EAC100606000F01EF86168F02293
:1021100092FAA2F201F0F001B2FA82F2D140074A3B
:10212000515CC8400649086006480068FFF758F946
:102130000020BCE70020024000100240764A000860
:10214000740000206C000020164A10B55168164833
:1021500001F00C03042B20D0082B1ED14FF4701477
:1021600094FAA4F401F47013B4FA84F4E3400F4C2D
:10217000D26AE45C0F2393FAA3F302F00F02B3FADE
:1021800083F3DA40094B1033C9039A5C06D5002368
:102190001946FEF789F8A0FB040110BD0448A4FB12
:1021A000000110BD0010024000127A00564A0008DB
:1021B00000093D002DE9F84F050071D02878FC4E4C
:1021C000C0074FF0010425D070686704C0F3810098
:1021D000012807D07068C0F3810002281BD1706805
:1021E000C00318D597FAA7F0B0FA80F040F02000AD
:1021F000400901D0306800E0706A97FAA7F1B1FA9F
:1022000081F101F01F0104FA01F1084265D068680C
:102210000028D2D061E06868B0F5803F0BD010B1E3
:10222000B0F5A02F17D0306820F4803030603068CF
:1022300020F4802002E0306840F480303060F06AA2
:10224000A96820F00F000843F062686820B3FFF728
:10225000A7F880460AE0306840F480203060EAE762
:10226000FFF79EF8A0EB0800642871D897FAA7F052
:10227000B0FA80F040F02000400901D0306800E062
:10228000706A97FAA7F1B1FA81F101F01F0104FA1F
:1022900001F10842E4D020E0FFF782F8804607E031
:1022A000C2E000BFFFF77CF8A0EB08006428DCD890
:1022B00097FAA7F0B0FA80F040F02000400901D072
:1022C000306800E0706A97FAA7F1B1FA81F101F085
:1022D0001F0104FA01F10842E4D12878DFF8D48222
:1022E00080074FF0000A4FF0020730D570684FF0BA
:1022F000F80B10F00C0F07D07068C0F381000228B3
:1023000027D17068C00324D497FAA7F0B0FA80F000
:1023100040F02000400901D0306800E0706A97FA70
:10232000A7F1B1FA81F101F01F0104FA01F10842AD
:1023300002D02869012877D130689BFAABF220F0EF
:10234000F8016869B2FA82F29040014331605AE0C4
:1023500064E1286988B394FAA4F0B0FA80F048F8F0
:102360002040FFF71DF8814606E000BFFFF718F890
:10237000A0EB090002289AD897FAA7F0B0FA80F0EB
:1023800040F02000400901D0306800E0706A97FA00
:10239000A7F1B1FA81F101F01F0104FA01F108423D
:1023A000E4D030689BFAABF26969B2FA82F220F0AD
:1023B000F80091400843306025E0FFE794FAA4F06C
:1023C000B0FA80F048F820A0FEF7EAFF814605E069
:1023D000FEF7E6FFA0EB09000228CCD897FAA7F099
:1023E000B0FA80F040F02000400901D0306800E0F1
:1023F000706A97FAA7F1B1FA81F101F01F0104FAAE
:1024000001F10842E4D1287800076CD5A869A8B387
:1024100094FAA4F0B0FA80F008EB8000C0F8804491
:10242000FEF7BEFF814607E0A4E100BFFEF7B8FF5C
:10243000A0EB090002289ED897FAA7F0B0FA80F026
:1024400040F06000B4EB501F01D130680BE097FA08
:10245000A7F0B0FA80F040F06000B7EB501F01D158
:10246000306A00E0706A97FAA7F1B1FA81F101F0E1
:102470001F0104FA01F21042D8D034E0FFE794FAC9
:10248000A4F1B1FA81F108EB8101C1F880A4FEF753
:1024900087FF814606E000BFFEF782FFA0EB090040
:1024A00002289AD897FAA7F0B0FA80F040F06000BE
:1024B000B4EB501F01D130680BE097FAA7F0B0FAE7
:1024C00080F040F06000B7EB501F01D1306A00E0AF
:1024D000706A97FAA7F1B1FA81F101F01F0104FACD
:1024E00001F21042D8D12878400768D5F0694FF042
:1024F0000009C00009D4F06940F08050F061F06933
:102500004FF0010900F0805000902B480168C90588
:1025100012D4016841F480710160FEF741FF8346E7
:1025200006E000BFFEF73CFFA0EB0B00642875D867
:1025300021480068C005F5D5E86801280AD008B12F
:10254000052811D0306A20F001003062306A20F096
:10255000040002E0306A40F001003062E86868B3CD
:10256000FEF71EFF83460DE0306A40F00400306243
:10257000F0E700BFFEF714FFA0EB0B0141F288303B
:1025800081424BD897FAA7F0B0FA80F040F04000B3
:10259000B4EB501F01D1306813E097FAA7F0B0FAFE
:1025A00080F040F04000B7EB501F09D1306A08E0DE
:1025B0000010024000004242007000400CE040E089
:1025C000706A97FAA7F1B1FA81F101F01F0104FADC
:1025D00001F21042CED02DE0FEF7E2FE834607E086
:1025E000FEF7DEFEA0EB0B0141F28830814215D8E8
:1025F00097FAA7F0B0FA80F040F04000B4EB501F1B
:1026000001D130680CE097FAA7F0B0FA80F040F002
:102610004000B7EB501F02D1306A01E083E0706ADE
:1026200097FAA7F1B1FA81F101F01F0104FA01F262
:102630001042D5D1B9F1000F03D0F06920F08050DD
:10264000F061E86980B37168C1F38101022977D034
:102650004FF080714F000228504609D091FAA1F145
:10266000B1FA81F148F82100FEF79AFE05465DE0D7
:10267000894691FAA1F1B1FA81F1C24648F82100E8
:10268000FEF78EFE804605E0FEF78AFEA0EB08000E
:10269000022848D897FAA7F0B0FA80F040F020005E
:1026A000400902D0306801E066E0706A97FAA7F14D
:1026B000B1FA81F101F01F0104FA01F10842E3D1FE
:1026C000D5E908100843716821F47411084370605B
:1026D00099FAA9F0B0FA80F04AF82040FEF760FEBF
:1026E000054604E0FEF75CFE401B02281BD897FA63
:1026F000A7F0B0FA80F040F02000400901D0306827
:1027000000E0706A97FAA7F1B1FA81F101F01F01B8
:1027100004FA01F10842E5D02EE000BFFEF740FECA
:10272000401B022802D90320BDE8F88F97FAA7F0D2
:10273000B0FA80F040F02000400902D0306801E09B
:102740000BE0706A97FAA7F1B1FA81F101F01F016D
:1027500004FA01F10842E1D10EE00128E4D07068EA
:102760002A6A00F48031914204D1696A00F4701041
:10277000884201D00120D7E70020D5E710B5401EE0
:10278000B0F1807F01D3012010BD4FF0E0246061E3
:102790000F21601702F00EF90020A06107202061D0
:1027A000002010BD7047704770470000F0B590F8EA
:1027B0003C20012A36D0012480F83C40022280F8D7
:1027C0003D20026853689568174E184FB24201D0F9
:1027D000BA4204D123F4700C4B6843EA0C0323F093
:1027E000700C0B6843EA0C0353600268B2420DD0D0
:1027F000B2F1804F0AD00E4B9A4207D00D4B9A424D
:1028000004D0BA4202D00C4B9A4204D1896825F018
:1028100080031943916080F83D40002180F83C100E
:102820000846F0BD0220F0BD002C014000340140FC
:1028300000040040000800400040014010B50400C2
:1028400003D094F83D0010B107E0012010BD002036
:1028500084F83C00204600F023F8022084F83D0074
:10286000211D206800F0B4FC012084F8480084F8A1
:102870003E0084F83F0084F8400084F8410084F86A
:10288000420084F8430084F8440084F8450084F84A
:10289000460084F8470084F83D00002010BD000089
:1028A00008B500680B49884212D10B48C16941F054
:1028B0000201C161C069002200F0020000901146CF
:1028C0001D20FEF7D3FDBDE808401D20FEF7C0BD6A
:1028D00008BD0000000400400010024090F83D10C8
:1028E000012901D001207047022180F83D100168C4
:1028F000CA6842F00102CA600068104988420ED0DE
:10290000B0F1804F0BD00E49884208D00D49884263
:1029100005D00D49884202D00C49884207D1816810
:102920000B4A1140062906D0B1F5803F03D001685B
:1029300041F001010160002070470000002C0140BF
:102940000004004000080040003401400040014005
:102950000700010070B5044690F83C0000250128EE
:1029600017D0012684F83C60022084F83D002268DC
:1029700090682F4B184020F47F40906008685028E2
:1029800038D00DDC20284FD005DC90B3102811D1B1
:102990004AE0022070BD302846D040280AD13BE0F2
:1029A00060282FD070280DD0B0F5805F03D0B0F52F
:1029B000005F12D0012584F83D60002084F83C00BF
:1029C000284670BDCB68D1E90121206800F058FC91
:1029D0002068816841F0770109E0CB68D1E90121E5
:1029E000206800F04DFC2068816841F480418160DE
:1029F000E1E719E0CA684968206800F053FC5021FB
:102A0000206806E0CA684968206800F05CFC602124
:102A1000206800F03FFCCEE7CA684968206800F0F3
:102A200041FC40212068F4E7226801461046F0E7A7
:102A300088FFFEFF704770B50446006801694FF0DB
:102A40000005C943890715D4C168C943890711D452
:102A5000E91E0161012020772068806980072046F7
:102A600002D0FFF7E7FF04E000F0A7F8204600F0EF
:102A7000A5F8257720680169C943490717D4C168BB
:102A8000C943490713D46FF0040101610220207784
:102A90002068806910F4407F204602D0FFF7CAFF0B
:102AA00004E000F08AF8204600F088F825772068D6
:102AB0000169C943090716D4C168C943090712D47B
:102AC0006FF008010161042020772068C069800749
:102AD000204602D0FFF7AEFF04E000F06EF820467B
:102AE00000F06CF8257720680169C943C90617D43E
:102AF000C168C943C90613D46FF0100101610820F1
:102B000020772068C06910F4407F204602D0FFF78C
:102B100091FF04E000F051F8204600F04FF82577CF
:102B200020680169C943C90708D1C168C943C907F9
:102B300004D1891E0161204600F042F82068016935
:102B4000C943090609D4C168C943090605D46FF011
:102B5000800101612046FFF726FE20680169C94314
:102B6000C90509D4C168C943090605D46FF4807149
:102B700001612046FFF716FE20680169C943490636
:102B800009D4C168C943490605D46FF04001016109
:102B9000204600F033F820680169C94389060BD448
:102BA000C168C943890607D46FF02001016120463E
:102BB000BDE87040FFF7F8BD70BD7047704700007A
:102BC0000C4900680968884212D10B480A4902681A
:102BD000642092FBF0F0091F2723087010FB03F01C
:102BE00002EB8000487004480221001FFDF776BD0B
:102BF00070470000DC010020040000207047FEE761
:102C0000F0B500230A24302537261F4611E000BF07
:102C1000B4EB107F02D905EB107C01E006EB107CD1
:102C200001F813C001EB430C00015B1C8CF8017030
:102C3000DBB29342ECD3F0BD30B589B000240694EA
:102C40000794182168460894FDF71CFC1A484FF0B9
:102C5000A0410125C0E9001484600461457680F834
:102C60002040A902C162C5618910C460816280F8F8
:102C700030500421416104764463FDF7E3FF08B15D
:102C800072B6FEE706A90C480694FDF781FD08B16F
:102C900072B6FEE70720CDE9020400950195049481
:102CA000694605480594FDF7FFFD002801D072B67E
:102CB000FEE709B030BD00008C01002010B588B0DF
:102CC00000241848009401940294039404940594F9
:102CD00013490694016042F21071C0E901144721C2
:102CE000C0E903148461FFF7A9FD08B172B6FEE7DD
:102CF0004FF48050009069460A48FFF72BFE08B158
:102D000072B6FEE72020049004A906940548FFF758
:102D10004DFD002801D072B6FEE708B010BD0000DE
:102D200000040040DC01002010B500220F491048CB
:102D300000F0B4FD08B1FDF729FD0E490C4800F084
:102D400091FF08B1FDF722FD0B49094800F0B2FBE5
:102D500008B1FDF71BFD064800F0DAFF002803D09C
:102D6000BDE81040FDF712BD10BD000008000020B6
:102D70006C0200205401002058000020FEE7FEE70E
:102D80002DE9F84F044640F68F7B48F60F794FF453
:102D900080684FF0000AC0E1B0F8441011F00F0550
:102DA00039D030F8256031047ED530F8251001EA9D
:102DB0000B0141F0800120F8251005EB850004EBA4
:102DC000C00797F8740107F5B47700286DD0F8783C
:102DD00002286BD03978226832F8210048F68F73C8
:102DE000184048F2C003184322F8210039782068BF
:102DF00030F82120B0F8503052047DD5022202EB89
:102E0000C1015A1808EB4201415A8905890D009108
:102E100073D03A89DFE0C9062DD4018801EA09019F
:102E200041F400410180206804F12805B0F85030D9
:102E30002978022202EBC1015A1808EB4201405ADC
:102E4000C0F309006064E16B0844E06300212046A0
:102E5000FEF75DFB94F8240000289CD0A8690028A8
:102E600099D194F82400216840F08000A1F84C002A
:102E700084F824A051E1018804F5B4750A0521D530
:102E8000B0F850202B78062101EBC3010A4408EB6F
:102E90004201405A04F52C71C0F30903EB61EA8842
:102EA000206801F057FD02E0B0E070E080E02068AB
:102EB000018801EA0B0141F0800101802046FEF704
:102EC00060FF2AE10904D5D5018801EA0B0141F030
:102ED000800101802068B0F850202B78062101EB9A
:102EE000C3010A4408EB4201405A83059B0DEB6184
:102EF00010D0696971B101E061E05FE0EA882068A3
:102F000001F028FDE96968690844686100212046EC
:102F1000FEF706FB216808880205ABD4C0F3013038
:102F20000328A7D0B1F850000844B0F80C14C1F33E
:102F30000901A0F80C142A6900F20C403E2A09D9B4
:102F40005109D20600D1491E02884FF4004343EADA
:102F5000812109E0B2B15108D20700D0491C028892
:102F60004FF6FF7303EA81210A4302802168088833
:102F70004BF68F72104080F4405048F280021043AC
:102F80000880CAE0018841F400410180EEE7206832
:102F9000B0F850203B78062101EBC3010A4408EB4E
:102FA0004201415A8905890D009118D0FA8812E032
:102FB000324639462046FEF711FB00900FE006220C
:102FC00002EBC1015A1808EB4201415A8905890DEB
:102FD000009104D07A897969009B01F0BBFCF86903
:102FE00000990844F8617969009808447861B869E3
:102FF00018B139690098814204D939782046FEF722
:103000008FFA03E03946206801F020FA30062FD508
:1030100005EB850004EBC001206830F8252002EAAA
:10302000090242F4004220F8252091F82B002831B3
:1030300001281ED0F0056CD42068B0F850300D780F
:10304000022202EBC5021A4408EB4202805A8A6946
:10305000C0F30900824255D9121A8A6154D04A69D4
:1030600002444A61CA691044C861206801F0EEF95F
:1030700053E0C1F818A0087B524608B3700620D56B
:10308000487810B1012812D03AE02068B0F85020FA
:1030900010440A7800EB0210B0F80424C2F30902CD
:1030A000A0F80424B0F8042442F4004206E02068AA
:1030B000B0F8503018440B7800EB0310A0F804244B
:1030C0001EE04B78206813B1012B11D018E0B0F846
:1030D000502010440A7800EB0210B0F80C24C2F320
:1030E0000902A0F80C24B0F80C2442F4004205E0D8
:1030F000B0F8503018440B7800EB0310A0F80C2403
:10310000097802E0C1F818A0E9B22046FEF7FFF9FD
:1031100003E032462046FEF7D4FA2068B0F84410A7
:1031200009043FF539AE0020BDE8F88F70477047BD
:10313000FEF73CB930B59FB028210FA8FDF7A2F9E2
:10314000142119A8FDF79EF93C216846FDF79AF96C
:103150000121002408041194CDE90F100225CDE9C6
:10316000165013914FF4E01018900FA8FFF722F8B3
:1031700008B172B6FEE70F20CDE919054FF4806063
:10318000CDE91B40022119A81D94FEF739FF08B1B3
:1031900072B6FEE70648009040120E940990684609
:1031A000FEF722FE002801D072B6FEE71FB030BD48
:1031B000800002000248016841F47001016070471C
:1031C00088ED00E00148FFF736BC0000DC0100207C
:1031D0002DE9F0430268234B234D244E244C4FF03D
:1031E0008049984207D0484505D0A84203D0B04254
:1031F00001D0A04203D122F070074A683A431D4F24
:10320000DFF874C0DFF8748098420DD048450BD0C9
:10321000A84209D0B04207D0A04205D0B84203D09E
:10322000604501D0404503D122F44075CA682A4365
:103230004D6922F080022A4302608A68C2620A68ED
:103240008262984207D0A04205D0B84203D06045C0
:1032500001D0404501D10969016301214161BDE807
:10326000F0830000002C01400004004000080040F2
:10327000003401400040014000440140004801404A
:1032800010B5846842EA032224F47F440A432243AF
:10329000826010BD826822F070020A4342F007018A
:1032A0008160704710B5036A046A24F00104046267
:1032B000846924F0F00444EA021423F00A020A4369
:1032C0008461026210BD10B5036A23F0100303622B
:1032D0008369046A23F4704343EA023224F0A003B2
:1032E00043EA01118261016210BD2DE9F041D0F87D
:1032F000C032D0F8B822CAB101EB810500EB8504D9
:103300000026E7693FB103EBC5039B6BB7FBF3F501
:1033100003FB157323B1C2F814620020BDE8F081ED
:1033200000231A46E66100F080FCF6E70220F5E78C
:1033300070B50546D0F8B84200F07BFBC4F80C022B
:10334000D5F8B80248B1D5F8BC12D4F80402CA685E
:1033500004F503719047002070BD022070BD70B568
:1033600004460026812100F0B7FA002501212046FD
:10337000E56200F0B1FA82212046C4F86C5100F0F9
:10338000ABFA2564D4F8B80248B1D4F8BC0204F50D
:103390002E7440688047206800F017FE2560304694
:1033A00070BD10B5D0E9AE4159B194F80002FF28C4
:1033B00007D08B6894F8012221469847FF2084F8B3
:1033C0000002002010BD00000A2101800048704763
:1033D0007C0000204321018000487047CC00002081
:1033E000432101800048704788000020432101806C
:1033F00000487047100100202DE9F04104460026E6
:10340000007C4FF40077012590B3402302228121F4
:10341000204600F063FB4023E562022201212046A2
:1034200000F05CFB0823032282212046C4F86C5183
:1034300000F054FB4FF40770256400F0C7FDC4F89A
:10344000B802F8B10546D4F8BC02006880470020F5
:10345000C5F81402C5F81802207CD5F8042298B1EA
:1034600040230121204600F045FB3046BDE8F081B5
:10347000FFE73B4602228121204600F02FFB3B461E
:10348000E562CAE70126F0E73B46EAE710B5D0F867
:10349000B81269B1027C002AD1F8042205D0402379
:1034A000012100F027FB002010BD4FF40073F7E767
:1034B000022010BD02460220002902D00020C2F8DE
:1034C000BC127047D0F8B802C0F804120020704750
:1034D000D0F8B802C0F81022C0F8081200207047D7
:1034E0002DE9FC410546D0F8B87200208DF80000A7
:1034F000ADF80400064608780C4610F0600121D0B3
:1035000020293BD1E288AAB10006607807D5D5F81A
:10351000BC128B6839469847E288394626E087F81E
:103520000002A07987F80102E2883946284600F0B7
:103530006AF828E0D5F8BC12607800228B68214632
:10354000984720E0607820B10A2809D00B2815D1CF
:1035500010E095F89C02032810D1022201A905E091
:1035600095F89C02032809D101226946284600F0FB
:1035700064F808E095F89C02032804D02146284608
:1035800000F036F802263046BDE8FC8110B5D0F8D0
:10359000B812A1B1D1F814220AB1012010BD012244
:1035A000C1F81422D1F810220263B1F8102293B2AC
:1035B000D1F80822812100F038FB002010BD022044
:1035C00010BD10B5D0F8B42252689047002010BD4D
:1035D000134610B50A46002100F08CFA002010BDF9
:1035E000134610B50A46002100F01FFB002010BD55
:1035F00010B50446802100F0FDFA2046BDE81040D9
:10360000002100F0F7BA10B50323C0F85C21C0F820
:103610009432C0F8602113460A46002100F06AFA8D
:10362000002010BD10B505210023C0F894121A46E1
:10363000194600F05FFA002010BD10B50223C261E8
:10364000C0F89432026213460A46002100F0EDFAF7
:10365000002010BD10B504210023C0F894121A46B2
:10366000194600F0E2FA002010BD000010B50A462D
:10367000024903A000F0E2F8004810BD3005002028
:1036800043444320436F6E66696700001220088040
:10369000004870472800002010B50A46024903A0E0
:1036A00000F0CCF8004810BD300500204344432012
:1036B000496E7465726661636500000004200880CD
:1036C000004870472400002010B50A46024903A0B4
:1036D00000F0B4F8004810BD3005002053544D6987
:1036E00063726F656C656374726F6E6963730000FB
:1036F00010B50A46024903A000F0A0F8004810BD2A
:103700003005002053544D33322056697274756170
:103710006C20436F6D506F727400000010B51A205A
:1037200008800A480168001D0468001D0068081828
:1037300009D008220649FFF763FA0549042210312F
:103740002046FFF75DFA0248801E10BDACF7FF1F50
:103750003E000020F8B504460020ADF8000048887F
:103760000D46010A082948D2DFE801F0470409178D
:1037700047473C45D4F8B012207C0A6819E0207C09
:1037800002260028D4F8B40205D0C16A68468847EA
:10379000014646703EE0816AF8E7C0B206282CD2A6
:1037A000DFE800F0030A1014181CD4F8B0024268D5
:1037B00005E0694690471CE0D4F8B0028268E2B1A7
:1037C000207CF6E7D4F8B002C268F8E7D4F8B0027B
:1037D0000269F4E7D4F8B0024269F0E7D4F8B00225
:1037E0008269ECE7207C40B9D4F8B402416B6846AA
:1037F000884701460EE0207C20B129462046FFF78D
:10380000F7FEF8BDD4F8B402016B6846884701465C
:1038100007204870BDF8000048B1EA8852B18242E2
:1038200000D90246ADF800202046FFF706FFE888E1
:103830000028E6D12046FFF70DFFF8BD70B5002344
:1038400000281ED00446002502E06D1CEDB2641C69
:103850002678002EF9D1022404EB45041480127856
:10386000CA545B1C0322CA5400245B1C06E0CA54E1
:103870005B1CDAB28C54521CD3B2401C0278002A72
:10388000F5D170BD01004FF0000004D0012901D036
:10389000022901D0022070470120704710B580B185
:1038A000D0F8B43213B10023C0F8B43209B1C0F873
:1038B000B012012180F89C12027000F0BFF80020C5
:1038C00010BD022010BD10B5D0F8C002FDF758FEA3
:1038D000BDE81040FFF7D6BF10B5D0F8C002FDF725
:1038E00029FEBDE81040FFF7CDBF2DE9F041174696
:1038F000044651B1D4F8B40242691AB194F89C025A
:10390000032851D00220BDE8F081D4F8943200257C
:1039100004F11400022B03D0042B3AD0C3B33CE0D3
:10392000D0E903639E4207D9F11AC1608AB23946D1
:103930002046FFF755FE12E08068B0FBF3F103FB71
:10394000110199B9984211D3D4F8981288420DD236
:10395000002211462046FFF743FEC4F89852002388
:103960001A461946204600F0C5F816E0D4F8B4020D
:10397000C16829B194F89C02032801D120468847E8
:103980008021204600F036F92046FFF74BFE04E088
:10399000FFE78021204600F02DF994F8A0020128CD
:1039A00004D184F8A05201E0204690470020AAE705
:1039B00070B51546044649B1D4F8B40282691AB10B
:1039C00094F89C02032830D0022070BDD4F89412E1
:1039D00004F5AA70032902D005291ED027E0D0E9FA
:1039E00003218A420BD9531AC3600846834200D38D
:1039F00003469AB229462046FFF7EAFD17E0D4F8BD
:103A0000B402016929B194F89C02032801D120462F
:103A100088472046FFF71EFE09E000200146C4F853
:103A20009402204600F0E6F801E02046904700208E
:103A300070BDD0F8C002FDF7E0BF000010B504462D
:103A40001C481D49C0F8E842C4F8C00201600821C2
:103A50004160022181600161002181610162FEF704
:103A6000D3F808B1FCF792FE0022D4F8C002182364
:103A7000114604F53074FDF72BFD582300228021F8
:103A80002068FDF725FDC023002281212068FDF775
:103A90001FFD4FF48873002201212068FDF718FDF7
:103AA0004FF48073002282212068FDF711FD002071
:103AB00010BD000020110020005C00400A0601F04B
:103AC0007F01D0F8C00201EB810100EBC10002D5FB
:103AD00090F82A00704790F86A01704710B51C46AC
:103AE0001346D0F8C0022246FDF790FFBDE8104013
:103AF000FFF7C8BE10B5D0F8C002FDF7B4FFBDE8AF
:103B00001040FFF7BFBE70B50022044640231146A7
:103B1000FFF7E4FF40260125C4F864613346002224
:103B200080212046C4F85851FFF7D8FF6662A5618E
:103B300084F89C520020C4F894026060C4F8A40287
:103B4000D4F8B80228B1D4F8B40200214268204663
:103B50009047002070BD90F89C12042903D190F882
:103B60009D1280F89C120020704710B590F89C12AE
:103B7000032904D1D0F8B412C96901B188470020E3
:103B800010BD01740020704710B5D0F8C002FEF7D8
:103B9000E4F8BDE81040FFF775BE70B5044600F5C7
:103BA0002A70054600F04AF80120C4F89402B4F8DF
:103BB000AE02C4F8980294F8A80210F01F010AD0CF
:103BC00001290DD0022910D000F08001204600F01C
:103BD00011F8002070BD2946204600F09EF8F8E755
:103BE0002946204600F0CAF9F3E72946204600F0AE
:103BF0001DF9EEE710B5D0F8C002FDF74BFFBDE8A8
:103C00001040FFF73FBE10B5D0F8C002FEF7C0F875
:103C1000BDE81040FFF736BE90F89C1280F89D1268
:103C2000042180F89C120020704710B5D0F8C00223
:103C3000FDF760FFBDE81040FFF724BE0A78027070
:103C40004A7842708A78CB7802EB032242800A7964
:103C50004B7902EB032282808A79C97902EB012138
:103C6000C18070470246002011B1C2F8B4127047FB
:103C70000220704710B5D0F8B42202241AB112689D
:103C8000904700B90024204610BD000070B50E46D4
:103C90001E4D897804462970012931D894F89C0278
:103CA00002280BD003280FD031462046FFF7A0FC96
:103CB00029782046BDE87040FFF783BCD9B10320C6
:103CC000616084F89C0209E071B16068884212D09A
:103CD000C1B22046FFF775FC297861602046FFF7E6
:103CE000C9FF02280CD006E0022084F89C0220467E
:103CF0006160FFF766FC2046BDE87040FFF7AABC94
:103D000031462046BDE87040FFF772BC78000020C5
:103D100010B5FFF778FF002010BD2DE9F0410A78BB
:103D2000002612F0600208D0202A01D0402A70D16B
:103D3000D0F8B422926890476DE04B7800220125BC
:103D40000A2B66D2DFE803F0405D6557650805651C
:103D50002C29FFF7FFFC5EE004468888D8B9C888A4
:103D6000C8B94888802816D200F07F0794F89C02D2
:103D7000032810D084F89E7239462046FFF704FFCE
:103D80002046FFF767FC1FB1022084F89C0242E046
:103D900084F89C523FE020463BE0FFF777FF3AE093
:103DA000CB88012B35D190F89C32012B04D0022B0B
:103DB00002D0032B2DD104E08260012200F1080122
:103DC00016E00122011D13E090F89C22012A03D085
:103DD000022A01D0032A1CD1CA88022A19D1C5603F
:103DE000D0F8A41209B10321C160022200F10C0134
:103DF000FFF723FC0FE0498801290CD1C0F8A45239
:103E000011E090F89C32012B08D0022B06D0032B36
:103E100004D0FFF7EDFB3046BDE8F0814988012969
:103E2000F9D1C0F8A422FFF715FCF4E72DE9F04121
:103E30000A46044610780027097910F060030AD07A
:103E4000202B01D0402B50D1D4F8B4021146836806
:103E5000204698478FE0C0F34110012806D05078E3
:103E6000D0B301282AD003283FD107E0D4F8B40208
:103E7000114683682046BDE8F041184794F89C023B
:103E8000022802D0032872D10AE071B380296ED0D3
:103E90002046FFF7AFFE80212046FFF7ABFE6AE029
:103EA000508838B931B1802904D0D08810B9204663
:103EB000FFF7A0FE2046FFF7CDFB5CE094F89C02E4
:103EC0000228E2D0032852D1508898BB4806F1D08E
:103ED0002046FFF7F8FCEDE7FFE794F89C02002688
:103EE000022803D0032842D112E040E009B1802922
:103EF0003DD1080601F07F0000EB800004EB80015B
:103F000001D5143101E001F5AA7102220E602AE008
:103F1000080601F00F0000EB800004EB80000AD5DA
:103F2000806920B301F07F0000EB800004EB800586
:103F300014350BE01FE0D0F85801C0B101F07F004C
:103F400000EB800004EB800505F5AA7541B18029DE
:103F500006D02046FFF7B2FD10B10120286000E036
:103F60002E60022229462046FFF767FB03E0114638
:103F70002046FFF73DFB3846BDE8F08170B50546A9
:103F800008780C4610F0600003D0202801D04028AB
:103F900016D195F89C02012803D0022801D00328ED
:103FA0000ED1207901280BD8D5F8B40282682846B2
:103FB0009047E188014306D12846FFF74BFB02E01A
:103FC0002846FFF715FB002070BD7047004870477A
:103FD000000F00202DE9F0470C78002630F824303F
:103FE00048F68F121340CA78002A78D0012A7CD074
:103FF000022A02D0032A75D0012648F28002134318
:1040000020F824300D7830F8253048F68F7423409E
:104010002B43134320F825300D7B48F2C00948F6A6
:10402000BF734CF2800A4BF68F77EDB3CD7891F8E1
:1040300000C0022D30F82C507DD048F68F6805EA7C
:104040000805154320F82C50B0F8505091F800C0E6
:10405000054405EB0C15B1F808C02CF0010CA5F8CF
:1040600000C4B0F8505091F800C0054405EB0C15A1
:10407000B1F80AC02CF0010CA5F808C44D78002D49
:104080007ED00D7830F825C05FEA4C4C07D530F86B
:1040900025C00CEA040C4CEA0A0C20F825C091F863
:1040A00000C030F82C5000E022E06D0606D530F854
:1040B0002C50254045EA090520F82C50CC780D7885
:1040C000012C30F8254004EA03047CD084F020035E
:1040D000134320F82530C1E001E006E002E043F49C
:1040E00000738AE743F4C06387E743F4806384E79F
:1040F0004D784DB3B0F850500F78054405EB0715D7
:10410000CF8827F00107A5F800740F7830F8275002
:104110006D0606D530F82750254045EA090520F8F8
:104120002750CC78012C07D00C7830F82410194097
:1041300081F0200104E064E00C7830F8241019408C
:10414000114320F8241090E0B0F850300D7803446B
:1041500003EB0513CD8825F00105A3F80854B0F84A
:1041600050300D78034403EB0513B3F80C54C5F33A
:104170000905A3F80C540D6903F20C433E2D00E031
:1041800045E00BD94FEA551CED0601D1ACF1010C0D
:104190001D884FF4004848EA8C2C0BE035B34FEAF9
:1041A000550CED0701D00CF1010C1D884FF6FF787E
:1041B00008EA8C2C45EA0C051D800D7830F8253076
:1041C0005B0408D500E046E030F82530234043EAA0
:1041D0000A0320F82530097861B130F821303B40DE
:1041E00083F40053134320F821303EE01D8845F44A
:1041F0000045E1E70188394081F4405111430180D5
:1042000033E0254048F2801845EA08051AE791F89E
:1042100000C030F82C506D0406D530F82C502540E5
:1042200045EA0A0520F82C5091F800C030F82C50CF
:104230006D0606D530F82C50254045EA090520F8D2
:104240002C500D7830F825403C4084F44054144301
:1042500020F8254070E7144320F825400B7830F80B
:1042600023103940114320F823103046BDE8F08771
:104270002DE9F04391F80C804F780A7848F6BF7C1E
:104280004BF68F7948F2800348F2C0054CF2800665
:1042900048F68F74B8F1000F28D0002F30F8227044
:1042A0004FEA474748D0002F05DA30F82270274000
:1042B000374320F822700A7830F822707F0605D53F
:1042C00030F8227027402F4320F822700D7830F804
:1042D00025202240324320F825200C7830F8242075
:1042E00002EA0C021A4320F824201AE07FB130F8C9
:1042F0002260760605D530F8226026402E4320F84D
:1043000022600A7830F8221001EA0C010EE030F841
:1043100022506D0405D530F822502540354320F851
:1043200022500A7830F8221001EA0901194320F8D6
:1043300022100020BDE8F083002F05DA30F822704B
:104340002740374320F822700A7830F8226076063A
:1043500005D530F8226026402E4320F822600E78E2
:1043600030F8262022402A4320F826200C7830F806
:10437000242002EA09021A4320F82420C1E7002081
:104380007047012120F8401F0021018081800182B7
:104390000846704730F8401F21F43F41018000205B
:1043A000704730B50A7BB2BB4A7848F68F7548F241
:1043B0008004C2B10B7830F82320520607D530F8BC
:1043C00023202A4048F2C0052A4320F82320CA7837
:1043D000012A20D00A7830F8221048F6BF7319401D
:1043E00081F0200114E00A7830F822305B0407D510
:1043F00030F822302B404CF280052B4320F822303D
:104400000A7830F822104BF68F73194081F440512E
:10441000214320F82210002030BD10B54A780978D9
:10442000002A48F2800330F8212005D048F6BF74F6
:10443000224082F0100204E04BF68F74224082F496
:1044400080521A4320F82120002010BD2DE9F047AA
:104450000D464B78097B04464FF0000948F68F72F1
:1044600048F2800A4FF400474FF6FF78012B09D03D
:1044700000296FD0E87802286DD001286CD0012087
:10448000BDE8F087AE692869864200D9064691B139
:10449000E97802291ED0286A801B2862287834F81F
:1044A00020104906B4F85010214401EB001073D5D8
:1044B000A0F80C6416E1B3B2EA882046696900F0FE
:1044C00065FAB4F850002978204400EB0110A0F8F8
:1044D00004640DE1296A814277D9297834F82100F2
:1044E000104048F28012104324F82100286A801BF3
:1044F0002862287834F820104906697871D511B1FE
:1045000001292AD030E0B4F85010214401EB00100A
:10451000B0F80C14C1F30901A0F80C1400F20C401F
:104520003E2E07D97109F20600D1491E028847EADA
:10453000812107E04EB17108F20700D0491C0288C2
:1045400008EA81210A4302800EE0018841F400411B
:10455000018009E0F1E020E195E1B4F85020111963
:1045600001EB0010A0F80C646A89B3B220466969B7
:1045700000F00CFA6869304468612969286A884249
:1045800002D9801B286202E00646C5F820906878B0
:1045900018B101282BD032E02FE0B4F85000297870
:1045A000204400EB0110B0F80414C1F30901A0F895
:1045B000041400F204403E2E08D97109F20600D11D
:1045C000491E028847EA812108E0A1E056B171083E
:1045D000F20700D0491C028808EA81210A430280C0
:1045E0000DE00EE0018841F40041018007E0B4F8DD
:1045F00050002978204400EB0110A0F804642A89B7
:1046000071E011B1012927D02DE0B4F850102144F8
:1046100001EB0010B0F80414C1F30901A0F8041470
:1046200000F204403E2E07D97109F20600D1491E5E
:10463000028847EA812107E04EB17108F20700D0F5
:10464000491C028808EA81210A4302800BE00188A4
:1046500041F40041018006E0B4F85010214401EB20
:104660000010A0F804642A89B3B22046696900F0FA
:104670008DF96869304468612969286A884202D9DD
:10468000801B286202E00646C5F82090687810B1C9
:10469000012836D026E0B4F850002978204400EBF9
:1046A0000110B0F80C14C1F30901A0F80C1400F2C9
:1046B0000C403E2E07D97109F20600D1491E02882E
:1046C00047EA812107E04EB17108F20700D0491C8A
:1046D000028808EA81210A43028003E0018841F44C
:1046E000004101806A89B3B22046696900F04EF941
:1046F000297834F8210048F6BF72104080F030006D
:104700000FE1B4F850100819297800EB0110CFE63A
:104710002A7834F8220048F68F63184040EA0A00ED
:1047200024F82200B4F850002A78204400EB02104C
:104730008BB2A0F804342A89D6E7A9692869814296
:1047400002D9091AA96102E00846C5F81890B4F820
:1047500050102A78214401EB0211B1F80C24C2F365
:104760000902A1F80C2401F20C413E287DD942092E
:10477000C00600D1521E088847EA82220AE0088853
:1047800040F4004007E04208C00700D0521C0888EF
:1047900008EA822210430880BBE033BBB4F8500023
:1047A0002978204400EB0110B0F80414C1F309018A
:1047B000A0F80414296900F204403E2907D94B09E6
:1047C000C90600D15B1E018847EA832307E041B197
:1047D0004B08C90700D05B1C018808EA83231943F2
:1047E00002E0018841F400410180687810B101289D
:1047F00028D030E0B4F850002978204400EB0110B4
:10480000B0F80C14C1F30901A0F80C14296900F2E6
:104810000C403E2907D94B09C90600D15B1E01880F
:1048200047EA832307E041B14B08C90700D05B1C6E
:10483000018808EA8323194302E0018841F400411A
:10484000018008E0B4F850100819297800EB011035
:10485000298AA0F80C14E869C0B3297834F821003B
:10486000430401D5430605D400E046E044F240038A
:1048700018424ED134F82100104048F2C0021043D3
:1048800024F8210045E0A9692869814202D9091A62
:10489000A96102E00846C5F8189013BBB4F850109F
:1048A0002A78214401EB0211B1F80424C2F3090271
:1048B000A1F8042401F204413E2808D94209C306A4
:1048C00000D1521E0B8847EA822208E021E078B12D
:1048D0004208C30700D0521C0B8808EA8222134307
:1048E0000B80697800293FF42EAF012909D010E030
:1048F0000A8842F400420A80F3E700287FF443AFBD
:104900003DE7B4F8502011192A7801EB0211A1F803
:104910000C04297834F821004BF68F72104080F493
:10492000405040EA0A0024F821000020A8E50021B8
:10493000A0F844104FF43F41A0F840100020704709
:104940000148FDF7EFB8000020110020B0F8440046
:104950007047000010B500EB42005C0800F5806075
:1049600009D000BF30F8042B01F8012B120A01F81E
:10497000012B641EF6D1DA0701D00088087010BD43
:1049800011B98021A0F84C100020704710B55B1CB5
:1049900000EB42005B0800F5806009D011F8012BA4
:1049A00011F8014B42EA042220F8042B5B1EF5D1DA
:1049B00010BDFEE70907090E002804DB00F1E02026
:1049C00080F80014704700F00F0000F1E02080F83C
:1049D000141D704708B5FCF7F1FCFEF7ABFB184857
:1049E000416941F480014161416901F48001009114
:1049F000416941F400314161416901F400310091A4
:104A0000416941F0010141614069002200F001006B
:104A1000009011460B20FCF729FD0B20FCF718FD38
:104A2000FEF782F9FEF708F9FEF748F90548FDF7A9
:104A300055FF0448012204495038FCF76FFAFEE79D
:104A400000100240DC010020040000204FF0407004
:104A5000E1EE100A704702030405060708090A0B75
:104A60000C0D0E0F10100102030405060708090AB9
:104A70000B0C0D0E0F1000000000000000000102E2
:104A80000304060708090000A84A000800000020E7
:104A90008C010000C4010008684B00088C01002054
:104AA000E41800002002000881138D361B08BD04A5
:104AB0001AC9041AF104131D371B086D081A99044A
:104AC0001704030904120114020202164083044071
:104AD00057260201020301031A1A031391061B0849
:104AE0008B041A87041AB904192F11821053127AF1
:104AF000130A0632022A401C1C090243571125C022
:104B00003209041B01020B130524161001052401B0
:104B10001009010424020205240617010705820377
:104B2000081C1009048D320A1D07050102432C07D9
:104B30000581070938442A40072A8107112B0907F4
:104B4000440A3B044413F9331B085F0413E1344265
:104B5000081AA30C13EB321B083108C11AE1101A12
:084B6000D5041AED041AC90482
:040000050800018965
:00000001FF
